{
  "contractName": "Registration",
  "abi": [
    {
      "inputs": [],
      "stateMutability": "nonpayable",
      "type": "constructor"
    },
    {
      "anonymous": false,
      "inputs": [
        {
          "indexed": false,
          "internalType": "uint256",
          "name": "athlCount",
          "type": "uint256"
        }
      ],
      "name": "NewAthlete",
      "type": "event"
    },
    {
      "anonymous": false,
      "inputs": [
        {
          "indexed": false,
          "internalType": "string",
          "name": "racename",
          "type": "string"
        }
      ],
      "name": "NewEvent",
      "type": "event"
    },
    {
      "anonymous": false,
      "inputs": [
        {
          "indexed": false,
          "internalType": "string",
          "name": "racename",
          "type": "string"
        }
      ],
      "name": "SelectedRace",
      "type": "event"
    },
    {
      "inputs": [],
      "name": "athlCount",
      "outputs": [
        {
          "internalType": "uint256",
          "name": "",
          "type": "uint256"
        }
      ],
      "stateMutability": "view",
      "type": "function",
      "constant": true
    },
    {
      "inputs": [],
      "name": "owner",
      "outputs": [
        {
          "internalType": "address",
          "name": "",
          "type": "address"
        }
      ],
      "stateMutability": "view",
      "type": "function",
      "constant": true
    },
    {
      "inputs": [],
      "name": "raceCount",
      "outputs": [
        {
          "internalType": "uint256",
          "name": "",
          "type": "uint256"
        }
      ],
      "stateMutability": "view",
      "type": "function",
      "constant": true
    },
    {
      "inputs": [
        {
          "internalType": "uint256",
          "name": "",
          "type": "uint256"
        }
      ],
      "name": "registeredAthletes",
      "outputs": [
        {
          "internalType": "address",
          "name": "",
          "type": "address"
        }
      ],
      "stateMutability": "view",
      "type": "function",
      "constant": true
    },
    {
      "inputs": [
        {
          "internalType": "address",
          "name": "",
          "type": "address"
        }
      ],
      "name": "registeredRaces",
      "outputs": [
        {
          "internalType": "uint256",
          "name": "",
          "type": "uint256"
        }
      ],
      "stateMutability": "view",
      "type": "function",
      "constant": true
    },
    {
      "inputs": [
        {
          "internalType": "address",
          "name": "",
          "type": "address"
        }
      ],
      "name": "totalAthletes",
      "outputs": [
        {
          "internalType": "string",
          "name": "name",
          "type": "string"
        },
        {
          "internalType": "uint256",
          "name": "age",
          "type": "uint256"
        },
        {
          "internalType": "string",
          "name": "gender",
          "type": "string"
        },
        {
          "internalType": "uint256",
          "name": "athlCount",
          "type": "uint256"
        }
      ],
      "stateMutability": "view",
      "type": "function",
      "constant": true
    },
    {
      "inputs": [
        {
          "internalType": "uint256",
          "name": "",
          "type": "uint256"
        }
      ],
      "name": "totalRaces",
      "outputs": [
        {
          "internalType": "bool",
          "name": "active",
          "type": "bool"
        },
        {
          "internalType": "string",
          "name": "racename",
          "type": "string"
        },
        {
          "internalType": "string",
          "name": "country",
          "type": "string"
        }
      ],
      "stateMutability": "view",
      "type": "function",
      "constant": true
    },
    {
      "inputs": [
        {
          "internalType": "string",
          "name": "_racename",
          "type": "string"
        },
        {
          "internalType": "string",
          "name": "_country",
          "type": "string"
        }
      ],
      "name": "initializeRace",
      "outputs": [
        {
          "internalType": "uint256",
          "name": "",
          "type": "uint256"
        }
      ],
      "stateMutability": "nonpayable",
      "type": "function"
    },
    {
      "inputs": [
        {
          "internalType": "uint256",
          "name": "raceNumber",
          "type": "uint256"
        }
      ],
      "name": "raceStatus",
      "outputs": [
        {
          "internalType": "bool",
          "name": "",
          "type": "bool"
        }
      ],
      "stateMutability": "view",
      "type": "function",
      "constant": true
    },
    {
      "inputs": [
        {
          "internalType": "string",
          "name": "_name",
          "type": "string"
        },
        {
          "internalType": "uint256",
          "name": "_age",
          "type": "uint256"
        },
        {
          "internalType": "string",
          "name": "_gender",
          "type": "string"
        },
        {
          "internalType": "uint256",
          "name": "_payment",
          "type": "uint256"
        },
        {
          "internalType": "uint256",
          "name": "_raceCount",
          "type": "uint256"
        }
      ],
      "name": "addAthlete",
      "outputs": [],
      "stateMutability": "payable",
      "type": "function",
      "payable": true
    }
  ],
  "bytecode": "0x60806040526000600155600060025534801561001a57600080fd5b50600080546001600160a01b03191633179055610add8061003c6000396000f3fe6080604052600436106100915760003560e01c80638ba5807c116100595780638ba5807c146101555780638da5cb5b1461016a578063930b18951461018c578063a0e0e4fc146101ac578063e366b5d5146101d957610091565b80631520c1d61461009657806316da7fae146100ab578063325955eb146100e15780634bce25ee146101105780635fcb45b214610140575b600080fd5b6100a96100a4366004610858565b6101f9565b005b3480156100b757600080fd5b506100cb6100c63660046107c9565b6102f8565b6040516100d89190610a08565b60405180910390f35b3480156100ed57600080fd5b506101016100fc3660046108d4565b61030a565b6040516100d893929190610956565b34801561011c57600080fd5b5061013061012b3660046107c9565b610441565b6040516100d894939291906109a0565b34801561014c57600080fd5b506100cb610579565b34801561016157600080fd5b506100cb61057f565b34801561017657600080fd5b5061017f610585565b6040516100d89190610937565b34801561019857600080fd5b5061017f6101a73660046108d4565b610594565b3480156101b857600080fd5b506101cc6101c73660046108d4565b6105af565b6040516100d8919061094b565b3480156101e557600080fd5b506100cb6101f43660046107f7565b6105c4565b60083410156102235760405162461bcd60e51b815260040161021a906109dd565b60405180910390fd5b6040518060800160405280868152602001858152602001848152602001600154600161024f9190610a11565b9052336000908152600360209081526040909120825180519192610278928492909101906106af565b5060208281015160018301556040830151805161029b92600285019201906106af565b5060609190910151600390910155600180546102b691610a11565b60018190556040517fe730c0f8b71a30dbe5691167cd352edbdc055cabec779f425cc17042112742bd916102e991610a08565b60405180910390a15050505050565b60056020526000908152604090205481565b6004602052600090815260409020805460018201805460ff909216929161033090610a40565b80601f016020809104026020016040519081016040528092919081815260200182805461035c90610a40565b80156103a95780601f1061037e576101008083540402835291602001916103a9565b820191906000526020600020905b81548152906001019060200180831161038c57829003601f168201915b5050505050908060020180546103be90610a40565b80601f01602080910402602001604051908101604052809291908181526020018280546103ea90610a40565b80156104375780601f1061040c57610100808354040283529160200191610437565b820191906000526020600020905b81548152906001019060200180831161041a57829003601f168201915b5050505050905083565b60036020526000908152604090208054819061045c90610a40565b80601f016020809104026020016040519081016040528092919081815260200182805461048890610a40565b80156104d55780601f106104aa576101008083540402835291602001916104d5565b820191906000526020600020905b8154815290600101906020018083116104b857829003601f168201915b5050505050908060010154908060020180546104f090610a40565b80601f016020809104026020016040519081016040528092919081815260200182805461051c90610a40565b80156105695780601f1061053e57610100808354040283529160200191610569565b820191906000526020600020905b81548152906001019060200180831161054c57829003601f168201915b5050505050908060030154905084565b60015481565b60025481565b6000546001600160a01b031681565b6006602052600090815260409020546001600160a01b031681565b60009081526004602052604090205460ff1690565b600080546001600160a01b03163381146105dd57600080fd5b6040805160608101825260018082526020808301888152838501889052600254600090815260048352949094208351815460ff1916901515178155935180519394936106309385019291909101906106af565b506040820151805161064c9160028401916020909101906106af565b505060025461065d91506001610a11565b6002556040517fc49fa2d8e562e80e750f98e95e2178dc3201633e4f247b6474aa6d8fafe29dba9061069090869061098d565b60405180910390a160016002546106a79190610a29565b949350505050565b8280546106bb90610a40565b90600052602060002090601f0160209004810192826106dd5760008555610723565b82601f106106f657805160ff1916838001178555610723565b82800160010185558215610723579182015b82811115610723578251825591602001919060010190610708565b5061072f929150610733565b5090565b5b8082111561072f5760008155600101610734565b600082601f830112610758578081fd5b813567ffffffffffffffff8082111561077357610773610a91565b604051601f8301601f19168101602001828111828210171561079757610797610a91565b6040528281528483016020018610156107ae578384fd5b82602086016020830137918201602001929092529392505050565b6000602082840312156107da578081fd5b81356001600160a01b03811681146107f0578182fd5b9392505050565b60008060408385031215610809578081fd5b823567ffffffffffffffff80821115610820578283fd5b61082c86838701610748565b93506020850135915080821115610841578283fd5b5061084e85828601610748565b9150509250929050565b600080600080600060a0868803121561086f578081fd5b853567ffffffffffffffff80821115610886578283fd5b61089289838a01610748565b96506020880135955060408801359150808211156108ae578283fd5b506108bb88828901610748565b9598949750949560608101359550608001359392505050565b6000602082840312156108e5578081fd5b5035919050565b60008151808452815b81811015610911576020818501810151868301820152016108f5565b818111156109225782602083870101525b50601f01601f19169290920160200192915050565b6001600160a01b0391909116815260200190565b901515815260200190565b600084151582526060602083015261097160608301856108ec565b828103604084015261098381856108ec565b9695505050505050565b6000602082526107f060208301846108ec565b6000608082526109b360808301876108ec565b85602084015282810360408401526109cb81866108ec565b91505082606083015295945050505050565b6020808252601190820152704e6f7420656e6f75676874206d6f6e657960781b604082015260600190565b90815260200190565b60008219821115610a2457610a24610a7b565b500190565b600082821015610a3b57610a3b610a7b565b500390565b600281046001821680610a5457607f821691505b60208210811415610a7557634e487b7160e01b600052602260045260246000fd5b50919050565b634e487b7160e01b600052601160045260246000fd5b634e487b7160e01b600052604160045260246000fdfea26469706673582212203050aa43ad42ba7ad8b86d0457ab16cb9ce9233d5e6e5a053370a5b538900f0c64736f6c63430008000033",
  "immutableReferences": {},
  "source": "// SPDX-License-Identifier: MIT\npragma solidity ^ 0.8.0;\n\n// ---------------------------------- Verification contract ------------------------------\n\ncontract Registration {\n\n    //Owner \n    address public owner;\n\n    //Athletes that will run\n    uint public athlCount=0;\n\n    //Events that exist\n    uint public raceCount=0;\n\n    //Athlete mapping\n    mapping (address => AthleteRegistration) public totalAthletes;\n\n    //Race mapping\n    mapping (uint => RaceRegistration) public totalRaces;\n\n    // Choose race mapping\n    mapping (address => uint) public registeredRaces;\n\n    // Athletes per race\n    mapping (uint => address) public registeredAthletes;\n\n//---------------------------------STRUCTS------------------------------\n\n    // For the runners\n    struct AthleteRegistration{\n        string name; \n        uint age;\n        string gender;\n        uint athlCount; \n    }\n\n    // For the events \n    struct RaceRegistration{\n        bool active;\n        string racename;\n        string country;\n    }\n\n//----------------------------------EVENTS--------------------------------------\n\n    // Events\n    event NewAthlete (uint athlCount);\n    event NewEvent (string racename);\n    event SelectedRace (string racename);\n\n//----------------------------------MODIFIERS-----------------------------------\n\n    // Modifiers\n    // Owner\n    modifier isOwner (address _owner) {\n        require(msg.sender == _owner);\n        _;\n    }\n\n\n// -------------------------------FUNCTIONS-------------------------------------\n\n    constructor() {\n        owner = msg.sender;\n    } \n\n    //Create a function for the events to decided the price for the races !!!!!!!!!!!!!!!\n    function initializeRace (string memory _racename, string memory _country) isOwner(owner) public returns(uint) {\n        totalRaces[raceCount] =  RaceRegistration({\n        racename:_racename,\n        country:_country,\n        active: true\n        });\n        raceCount = raceCount +1;\n        emit NewEvent (_racename);\n        return raceCount-1;\n    }\n\n    // If the event is inactive\n    function raceStatus(uint raceNumber) public view returns (bool)\n    {\n        bool activ = totalRaces[raceNumber].active; \n        return(activ);\n    }\n\n    // -------------ATHLETES----------------------\n    function addAthlete(string memory _name, uint _age, string memory _gender, uint _payment, uint _raceCount) public payable {\n\n        require (msg.value >= 8,\"Not enought money\");\n         \n        totalAthletes[msg.sender] = AthleteRegistration({\n        name: _name, \n        age: _age,\n        gender: _gender,\n        athlCount: athlCount+1\n        });\n\n        athlCount = athlCount +1;\n        emit NewAthlete (athlCount);\n    }\n}\n",
  "sourcePath": "/home/antonisp/Desktop/Consensys-Bootcamp--Final-Project/Final Project/Dapps/contracts/Registrationv4.sol",
  "compiler": {
    "name": "solc",
    "version": "0.8.0+commit.c7dfd78e.Emscripten.clang"
  },
  "schemaVersion": "3.4.3",
  "updatedAt": "2022-01-12T17:01:01.948Z",
  "networkType": "ethereum",
  "devdoc": {
    "kind": "dev",
    "methods": {},
    "version": 1
  },
  "userdoc": {
    "kind": "user",
    "methods": {},
    "version": 1
  }
}